:10000000021BF002000A53EFFE323202001A53EFD5
:10001000FD323202001253EFFB323202002253EF64
:10002000FE3232021E21C2AF22D2AF2203FCFC03F9
:0300430002206533
:03005300020006A2
:03005B0002000E92
:0300630002001E7A
:0300830002001662
:03008B00022087C9
:030093000220A99F
:03009B00021A3610
:1000A300021FD2020478E86480F8E933E833601170
:1000B3000460F0ED33EC337009E8FCE9FDEAFEEB94
:1000C300FF220460DED3EB9FEA9EE99DE8C2E78C42
:1000D300F0C2F795F0400CE8CCF8E9CDF9EACEFA96
:1000E300EBCFFB12044385D0F05804700320D5B343
:1000F300E80470075002B2D502048292D5EC046082
:10010300F7E4CCC0E0C398F8603B94186008400D56
:10011300D0E0FB02045AE4FBFAC9FC8028E830E48F
:1001230006E4C9FBE4CAFCE830E305E4C9CACBFC36
:10013300E854076010F8C3E913F9EA13FAEB13FB69
:10014300EC13FCD8F130F52FC3E49CFCEF9BFFEEDE
:100153009AFEED99FDD0E0FBEF4E4D4C701222DB81
:100163000302047FEC2CFCEF33FFEE33FEED33FD93
:10017300ED30E7EB02045AEF2BFFEE3AFEED39FDCB
:10018300D0E0FB50130BBB0003020482ED13FDEE22
:1001930013FEEF13FFEC13FC02045AEC4D6011E85D
:1001A300497017ED33EC3304600DE4FCFFFEFD22D0
:1001B300E933E8330470F802047812044358046006
:1001C30009E4CC2481500628500902048228400304
:1001D30002047FC0E0EB4A7044B98006D0E0FB0222
:1001E300046EEF4E701CBD8008EBFFEAFEE9FD8054
:1001F300EBE98DF0A4FEE5F0020287E9CDF9EAFE12
:10020300EBFFEF89F0A4FCE5F0CE89F0A42EFFE428
:1002130035F0CD89F0A42DFEE435F08067EF4E7004
:1002230005BD80D780C3EF8BF0A4ACF0EE8BF0A4B8
:100233002CFCE435F0F8EF8AF0A42CE5F038FCE46C
:1002430033CB8DF0A42CFCE5F03BF8EE8AF0A42C24
:10025300FCE5F038F8E433CF89F0A42CFCE5F03862
:10026300CF3400CE89F0A42FFFE5F03EFEE433C97E
:100273008DF0A42EFEE5F039CD8AF0A42FFFE5F032
:100283003EFEE43DFD33D0E0FB50070BBB000F0205
:100293000482EC2CFCEF33FFEE33FEED33FD02045E
:1002A3005A020482EC5D046005E8590470030204F9
:1002B30078120443580460F6EC4860F2EC7004FDD5
:1002C300FEFF22C860DB2481C85009C39860025036
:1002D3000602047F9850CAF582E9294B4A7005ABA0
:1002E3008202046E75F0007C1A7880C3EF9BEE9A4D
:1002F300ED99400DC3EF9BFFEE9AFEED99FDE842A9
:10030300F0DC23ACF0D0E0FFD0E0FED0E0FDAB8228
:1003130020E7101BEB60BAEC2CFCEF33FFEE33FE4F
:10032300ED33FD02045AE803F830E705C0F075F039
:1003330000EF2FFFEE33FEED33FD40B830E7C28010
:10034300AA74F8CC6480CCC86480C8F58204604F7A
:10035300C3EB9FF5F0EA9E42F0E99D42F0E89C452D
:10036300F0603C501DE5825FFFE582D313CB5BCB8E
:10037300F42B5582FB50280ABA002409B90020083F
:10038300801DE5825BFBE582D313CF5FCFF4C313FC
:100393002F5582FF50090EBE00050DBD00010CC391
:1003A300EB9FF5F0EA9E42F0E99D42F0E89C45F0B0
:1003B3006007CC4820E701B3EC22ED33EC33600A4D
:1003C300047003BD8004ECB2E7FC2275F020800EBC
:1003D30075F010800575F0087D007E007F00339274
:1003E300D530D5031208D1EC334010EF33FFEE3391
:1003F300FEED33FDEC33FCD5F0ED22E5F0247EA2D7
:10040300D513CC92E7CDCEFF22EDD2E7CD33EC333B
:1004130092D524814006E4FFFEFDFC22FCE4CFCE0E
:10042300CDCC24E0501174FF80EDC3CC13CCCD139D
:10043300CDCE13CECF13CF0470F030D5DE0208D16A
:10044300E9D2E7C933E833F892D5EDD2E7CD33ECFF
:1004530033FC5002B2D522EC30E7100FBF000C0E74
:10046300BE00080DBD00040BEB6014A2D5EB13FC1A
:10047300ED92E7FD2274FFFCFDFEFF22E480F8A26B
:10048300D574FF13FC7D80E480EFED33EC33601013
:1004930004700FED547F7005740292E022740422FD
:1004A3000422E422C0E0EFFBEEFAEDF9ECF81201CE
:1004B3009ED0E0F5F0EFFBEEFAEDF9ECF81209B39C
:1004C300A3A3A3A3E8C0E0E9C0E0EAC0E0EBC0E077
:1004D300C0F012019E1209CFA3A3A3A31200ADD0B3
:1004E300F0D0E0FBD0E0FAD0E0F9D0E0F8D5F0D4DA
:1004F30022E709F608DFFA8046E709F208DFFA8007
:100503003E88828C83E709F0A3DFFA8032E309F6A1
:1005130008DFFA8078E309F208DFFA807088828CBA
:1005230083E309F0A3DFFA806489828A83E0A3F678
:1005330008DFFA805889828A83E0A3F208DFFA8011
:100543004C80D280FA80C680D4806980F280338068
:100553001080A680EA809A80A880DA80E280CA8030
:100563003389828A83ECFAE493A3C8C582C8CCC5D5
:1005730083CCF0A3C8C582C8CCC583CCDFE9DEE752
:10058300800D89828A83E493A3F608DFF9ECFAA944
:10059300F0EDFB2289828A83ECFAE0A3C8C582C806
:1005A300CCC583CCF0A3C8C582C8CCC583CCDFEA55
:1005B300DEE880DB89828A83E493A3F208DFF98093
:1005C300CC88F0EF60010E4E60C388F0ED2402B4D6
:1005D300040050B9F582EB2402B4040050AF232386
:1005E30045822390054473C2D530F707B2D563F033
:1005F300FF05F030E70CB2D5F4048463F0FF05F097
:1006030080018430D502F40422BB010689828A83E7
:10061300E0225002E722BBFE02E32289828A83E4BE
:100623009322BB010CE58229F582E5833AF583E049
:10063300225006E92582F8E622BBFE06E92582F868
:10064300E222E58229F582E5833AF583E49322BB2E
:10065300010689828A83F0225002F722BBFE01F34E
:1006630022F8BB010DE58229F582E5833AF583E89B
:10067300F0225006E92582C8F622BBFE05E9258251
:10068300C8F222EF8DF0A4A8F0CF8CF0A428CE8D71
:10069300F0A42EFE22BC000BBE0029EF8DF084FFD8
:1006A300ADF022E4CCF875F008EF2FFFEE33FEEC4B
:1006B30033FCEE9DEC984005FCEE9DFE0FD5F0E972
:1006C300E4CEFD22EDF8F5F0EE8420D21CFEADF071
:1006D30075F008EF2FFFED33FD4007985006D5F076
:1006E300F222C398FD0FD5F0EA22C2D5EC30E70918
:1006F300B2D5E4C39DFDE49CFCEE30E715B2D5E42E
:10070300C39FFFE49EFE120698C3E49DFDE49CFC98
:10071300800312069830D507C3E49FFFE49EFE22B0
:10072300C5F0F8A3E028F0C5F0F8E5821582700261
:100733001583E038F022A3F8E0C5F025F0F0E58258
:10074300158270021583E0C838F0E822BB0110E57A
:100753008229F582E5833AF583E0F5F0A3E02250A0
:1007630009E92582F886F008E622BBFE0AE925821C
:10077300F8E2F5F008E222E5832AF583E993F5F040
:10078300A3E99322F8BB0111E58229F582E5833AB7
:10079300F583E8F0E5F0A3F0225009E92582C8F6D5
:1007A30008A6F022BBFE09E92582C8F2E5F008F2AB
:1007B30022E88FF0A4CC8BF0A42CFCE98EF0A42CBF
:1007C300FC8AF0EDA42CFCEA8EF0A4CDA8F08BF00B
:1007D300A42DCC3825F0FDE98FF0A42CCD35F0FC09
:1007E300EB8EF0A4FEA9F0EB8FF0A4CFC5F02ECDD5
:1007F30039FEE43CFCEAA42DCE35F0FDE43CFC22BA
:1008030075F008758200EF2FFFEE33FECD33CDCCAC
:1008130033CCC58233C5829BED9AEC99E58298402F
:100823000CF582EE9BFEED9AFDEC99FC0FD5F0D60C
:10083300E4CEFBE4CDFAE4CCF9A88222B800C1B936
:100843000059BA002DEC8BF084CFCECDFCE5F0CB74
:10085300F97818EF2FFFEE33FEED33FDEC33FCEBAD
:1008630033FB10D703994004EB99FB0FD8E5E4F968
:10087300FA227818EF2FFFEE33FEED33FDEC33FC55
:10088300C933C910D7059BE99A4007EC9BFCE99A49
:10089300F90FD8E0E4C9FAE4CCFB2275F010EF2F8E
:1008A300FFEE33FEED33FDCC33CCC833C810D7078E
:1008B3009BEC9AE899400AED9BFDEC9AFCE899F8C9
:1008C3000FD5F0DAE4CDFBE4CCFAE4C8F922C3E4B3
:1008D3009FFFE49EFEE49DFDE49CFC22EB9FF5F06C
:1008E300EA9E42F0E99D42F0EC6480C8648098453A
:1008F300F022EB9FF5F0EA9E42F0E99D42F0E89C7E
:1009030045F022E8600FECC313FCED13FDEE13FE7C
:10091300EF13FFD8F122BB010789828A830209A75B
:100923005005E9F8020B1CBBFE05E9F8020B288908
:10093300828A830209B3BB010DE58229F582E5832F
:100943003AF5830209A75007E92582F8020B1CBB7D
:10095300FE07E92582F8020B28E58229F582E58363
:100963003AF5830209B3BB010789828A83020A64C9
:100973005005E9F8020B4EBBFE05E9F8020B5A22BB
:10098300BB010DE58229F582E5833AF583020A640A
:100993005007E92582F8020B4EBBFE07E92582F8D2
:1009A300020B5A22E0FCA3E0FDA3E0FEA3E0FF223A
:1009B300E493FC740193FD740293FE740393FF228A
:1009C300E0F8A3E0F9A3E0FAA3E0FB22E493F874D0
:1009D3000193F9740293FA740393FB22BB01078911
:1009E300828A830209C35005E9F8020B34BBFE0572
:1009F300E9F8020B4189828A830209CFBB010DE525
:100A03008229F582E5833AF5830209C35007E92574
:100A130082F8020B34BBFE07E92582F8020B41E59D
:100A23008229F582E5833AF5830209CF7401FF3306
:100A330095E0FEFDFCA3A3A3E0CF2FF0E582158292
:100A430070021583E0CE3EF0E582158270021583B5
:100A5300E0CD3DF0E582158270021583E0CC3CF0D9
:100A630022ECF0A3EDF0A3EEF0A3EFF022A8828531
:100A730083F0D083D082120A87120A87120A871260
:100A83000A87E473E493A3C583C5F0C583C8C5820D
:100A9300C8F0A3C583C5F0C583C8C582C822BB01FE
:100AA3000DE58229F582E5833AF583020A70500742
:100AB300E92582F8020B66BBFE07E92582F8020BE3
:100AC3007F22F5F0C582A4C582C5F0C583A4258322
:100AD300F58322BB010789828A83020BA15005E9B2
:100AE300F8020B98BBFE05E9F8020BAA89828A83F8
:100AF300020BB3D083D082F8E49370127401937025
:100B03000DA3A393F8740193F5828883E4737402AD
:100B1300936860EFA3A3A380DFE6FC08E6FD08E685
:100B2300FE08E6FF22E2FC08E2FD08E2FE08E2FF1F
:100B330022E6FB08E6F908E6FA08E6CBF822E2FB30
:100B430008E2F908E2FA08E2CBF822ECF608EDF63F
:100B530008EEF608EFF622ECF208EDF208EEF208E2
:100B6300EFF222D083D082E493F608740193F6085F
:100B7300740293F608740393F6740473D083D082DB
:100B8300E493F208740193F208740293F208740375
:100B930093F2740473E6FB08E6FA08E6F922E0FB35
:100BA300A3E0FAA3E0F922E2FB08E2FA08E2F92261
:100BB300E493FB740193FA740293F92243BA80E538
:100BC3009D603178FAE6FBAF9FC3EF9BFFE494008F
:100BD300FEE49400FDE49400FC7BE07A287901783C
:100BE300001207B4E42FFFEE3451FEED3425FDEC83
:100BF3003402802E78FBE6FBAF9FC3EF9BFFE494A8
:100C030000FEE49400FDE49400FCE47B807ABBF9ED
:100C1300F81207B4E42FFFEE3436FEED346EFDEC2C
:100C23003401FC900304120A64900304E0FCA3E083
:100C3300FDA3E0FEA3E0FFC00790FE01E0FBE4FAA2
:100C4300F9F8D00712083F900304120A647FC07EAC
:100C5300F67D577C00900304E0F8A3E0F9A3E0FAE3
:100C6300A3E0FBC31208F550097F007E607D547C2E
:100C730000227FC07E267D827C00900304E0F8A3DF
:100C8300E0F9A3E0FAA3E0FBC31208F550097F8063
:100C93007E8D7D5B7C00227F807EED7DAF7C00902E
:100CA3000304E0F8A3E0F9A3E0FAA3E0FBC312080E
:100CB300F550097F007EC07DA87C00227F807E2DB9
:100CC3007DE87C00900304E0F8A3E0F9A3E0FAA335
:100CD300E0FBC31208F550097F007E1B7DB77C0043
:100CE300227F807E367D257C01900304E0F8A3E01B
:100CF300F9A3E0FAA3E0FBC31208F550097F007ED5
:100D0300407D197C01227F807E567D417C019003CA
:100D130004E0F8A3E0F9A3E0FAA3E0FBC31208F5AB
:100D230050097F007E2D7D317C01227F007EDB7D9B
:100D33005F7C01900304E0F8A3E0F9A3E0FAA3E0E9
:100D4300FBC31208F550097F007E807D517C012290
:100D53007F607E197D857C01900304E0F8A3E0F9B0
:100D6300A3E0FAA3E0FBC31208F550097F007E3627
:100D73007D6E7C01227F207EE07DB27C01900304A6
:100D8300E0F8A3E0F9A3E0FAA3E0FBC31208F550EF
:100D9300097FC07EFC7D9B7C01227FE07EA67DE0F7
:100DA3007C01900304E0F8A3E0F9A3E0FAA3E0FBDD
:100DB300C31208F550097F807EC37DC97C01227F61
:100DC300607E2B7DFF7C01900304E0F8A3E0F9A390
:100DD300E0FAA3E0FBC31208F550097F007E407DD3
:100DE300FA7C01227F607E477D247C02900304E02D
:100DF300F8A3E0F9A3E0FAA3E0FBC31208F5500956
:100E03007FC07E0E7D167C02227F007E6D7D4A7C34
:100E130002900304E0F8A3E0F9A3E0FAA3E0FBC324
:100E23001208F550097F007E807D327C02227F808C
:100E33007EDE7D807C02900304E0F8A3E0F9A3E06A
:100E4300FAA3E0FBC31208F550097F007E5A7D62C6
:100E53007C02227F807EE77DBD7C02900304E0F864
:100E6300A3E0F9A3E0FAA3E0FBC31208F55008E4FA
:100E7300FFFE7DA37C02227F007E6C7DDC7C022250
:100E8300ED6003020F26EF54F0F9FB7A007013EFC5
:100E9300540FFEF87401088002C333D8FCF4529354
:100EA3005294EB64104A7013EF540FFEF874010868
:100EB3008002C333D8FCF452915292E96420701338
:100EC300EF540FFEF87401088002C333D8FCF452C8
:100ED300955296E9FB7A0064307013EF540FFEF8D5
:100EE3007401088002C333D8FCF452B152B2EB64EC
:100EF300404A7013EF540FFEF87401088002C333A5
:100F0300D8FCF452B352B4E964506003021133EFD6
:100F1300540FFEF87401088002C333D8FCF452C99D
:100F230052CA22ED64016003020FD6EF54F0F9FBBD
:100F33007A007015EF540FFEF87401088002C33372
:100F4300D8FCFEF45293EE4294EB64104A7015EF12
:100F5300540FFEF87401088002C333D8FCFEF45228
:100F630091EE4292E964207015EF540FFEF874017C
:100F7300088002C333D8FCFEF45295EE4296E9FB97
:100F83007A0064307015EF540FFEF8740108800284
:100F9300C333D8FCFEF452B1EE42B2EB64404A7064
:100FA30015EF540FFEF87401088002C333D8FCFE1A
:100FB300F452B3EE42B4E964506003021133EF54C8
:100FC3000FFEF87401088002C333D8FCFEF452C943
:100FD300021130ED64026003021087EF54F0F9FB55
:100FE3007A007015EF540FFEF87401088002C333C2
:100FF300D8FCFE4293EEF45294EB64104A7015EF62
:10100300540FFEF87401088002C333D8FCFE4291EA
:10101300EEF45292E964207015EF540FFEF8740158
:10102300088002C333D8FCFE4295EEF45296E9FBE6
:101033007A0064307015EF540FFEF87401088002D3
:10104300C333D8FCFE42B1EEF452B2EB64404A70B3
:1010530015EF540FFEF87401088002C333D8FCFE69
:1010630042B3EEF452B4E964506003021133EF5417
:101073000FFEF87401088002C333D8FCFE42C9EEA8
:10108300F452CA22ED64036003021133EF54F0FDFE
:101093007C007014EF540FFEF87401088002C33310
:1010A300D8FCFE4293EE4294ED64104C7014EF545E
:1010B3000FFEF87401088002C333D8FCFE4291EEA0
:1010C3004292EF54F064207014EF540FFEF8740151
:1010D300088002C333D8FCFE4295EE4296EF54F0EB
:1010E300FD7C0064307014EF540FFEF87401088027
:1010F30002C333D8FCFE42B1EE42B2ED64404C7001
:1011030014EF540FFEF87401088002C333D8FCFEB9
:1011130042B3EE42B4EF54F064507014EF540FFE38
:10112300F87401088002C333D8FCFE42C9EE42CAF8
:1011330022900304EFF0E490030DF0A3F043BA8090
:10114300900304E0FF1215A9900305E0F8A3E0F96A
:10115300A3E0FAA3E0FB900357E0FCA3E0FDA3E0C8
:10116300FEA3E0FF12083F781012090690030DEE6C
:10117300F0A3EFF0900305E0F8A3E0F9A3E0FAA3EE
:10118300E0FB900357E0FCA3E0FDA3E0FEA3E0FF38
:1011930012083FC006C00790030EE02401FF90032E
:1011A3000DE03400AB07FAE4F9F8D007D0061208D3
:1011B3003FEF24FFFFEE34FF90030BF0A3EFF0901B
:1011C3000309E0FCA3E0FDE41203D37B007A40793A
:1011D3001C78461202A7C004C005C006C0079003CE
:1011E3000BE0FCA3E0FDE41203D3D003D002D00153
:1011F300D00012019E12040CAD07AC06900304E06C
:10120300FFD374409F7480F89840030212E690FE67
:10121300B5C083C082E0FF900304E0FEC4540F24F2
:10122300FCF925E0FBF87401088002C333D8FC4FB6
:10123300D082D083F090FEB6C083C082E0FFEE542C
:1012430003FEA803088002C333D8FC4FD082D083A7
:10125300F0E9C31324ECFFE434FE8F82F583C083EB
:10126300C082E0FF900304E0F9C4540FFE5401254B
:10127300E025E0FBF87401088002C333D8FC4FD0AB
:1012830082D083F0EE24E4FFE434FE8F82F583E022
:101293004460F0E04408F090030BE0FFA3E090FE0D
:1012A300F2CFF0A3EFF090030DE0FFA3E090FEF088
:1012B300CFF0A3EFF0E9C4540F24FCFFE434FFFEA6
:1012C300EF25E0FFEE33FEEF24F5FFEE34FE8F82D1
:1012D300F583ECF0A3EDF090FEFD7480F090FEE05A
:1012E3000213D290FEB1C083C082E0FB900304E0FE
:1012F300FA5401F97E007401A801088005C333CEB6
:1013030033CED8F9FFEAC4540F25E0FAEFA8020858
:101313008005C333CE33CED8F94BD082D083F0903F
:10132300FEB2C083C082E0FF900304E05407C313FE
:10133300FEA802088002C333D8FC4FD082D083F0CA
:10134300900304E0FFC413540724CCFBE434FE8B66
:1013530082F583C083C082E0FEEFC4540FFF5401C3
:1013630025E025E0FBE925E02BFBF874010880026A
:10137300C333D8FC4ED082D083F0EF24C8FFE434CB
:10138300FE8F82F583E04460F0E04408F090030BA5
:10139300E0FFA3E090FED2CFF0A3EFF090030DE0C7
:1013A300FFA3E090FED0CFF0A3EFF0900304E0C4DE
:1013B300540F75F002A424D5FFE5F034FE8F82F5B7
:1013C30083ECF0A3EDF090FEDD7480F090FEC0742A
:1013D30001F022900304EFF0A3EDF0A3EBF0A3E000
:1013E300F8A3E0F9A3E0FAA3E0FB900357E0FCA322
:1013F300E0FDA3E0FEA3E0FF12083FE47B04FAF95B
:10140300F812083FC3E49FFFE49EAD07FC9003047A
:10141300E01470030214AF1470030214F214700387
:1014230002154B240360030215A890030BE0FB7A1B
:1014330000640170144398508D8BECF58D438E40FE
:10144300D28EE49001CAF08011EB64024A700B4320
:1014530098508DD7ECF5D6438E1553A23F900305D4
:10146300E0F9FF7E007008A3E0640170028035EFAD
:1014730064024E700D900306E06403700543A240BE
:101483008022E96404700D900306E064057005434F
:10149300A2808010E96406700B900306E064077075
:1014A3000343A2C0E49001CAF0D2AC2290030BE044
:1014B3006402700B439A108DD7ECF5D6438E145308
:1014C300BAFE900305E0FF7E0064087008A3E064A1
:1014D3000970028011EF640A4E700B900306E064FA
:1014E3000B700343BA0143AF01E49001CBF02290A8
:1014F300030BE0FB7A006402700D43AC108DD7EC54
:10150300F5D6438E148011EB64034A700B43AC5041
:101513008DD5ECF5D443D10A53BAFD900305E0FF12
:101523007E00640C7008A3E0640D70028011EF6408
:101533000E4E700B900306E0640F700343BA024330
:10154300AF08E49001CCF02290030BE0FB7A006437
:1015530002700D4384108DD7ECF5D6438E148011A1
:10156300EB64044A700B4384508DD3ECF5D243D122
:10157300A053BAFB900305E0FF7E0064107008A33C
:10158300E0641170028016EF64124E70109003062F
:10159300E064137008F5CA75C90443BA0443AF1075
:1015A300E49001CDF022EF120AF6162F0016360151
:1015B300163D02164403164B04165205165910160F
:1015C3006011166712166E13167514167C151683A2
:1015D30020168A21169122169823169F2416A625D3
:1015E30016AD3016B43116BA3216C03316C63416D9
:1015F300CC3516D23616D83716DE4016E44116EA35
:101603004216F04316F65016FC51170252170853B0
:10161300170E60171461171A6217206317267016C6
:10162300D271172C72173273000017397D017F10A6
:101633000217367D017F110217367D017F200217C5
:10164300367D017F210217367D017F600217367DCB
:10165300017F610217367D017F120217367D017FFC
:10166300130217367D017F220217367D017F230285
:1016730017367D017F620217367D017F63021736BD
:101683007D017F140217367D017F150217367D0118
:101693007F240217367D017F250217367D017F6483
:1016A3000217367D017F650217367D017F1602170B
:1016B300367D017F17807C7D017F2680767D017FCB
:1016C3002780707D017F66806A7D017F6780647DEE
:1016D300017F34805E7D017F3380587D017F2080D0
:1016E300527D017F17804C7D01E4FF80467D017FA1
:1016F3007480407D017F21803A7D017F5480347D59
:10170300017F01802E7D017F7580287D017F2280EE
:10171300227D017F33801C7D017F0280167D017F46
:101723007680107D017F23800A7D017F0380047D05
:10173300017F77120E832290029A120A6490031D8E
:10174300E0FCA3E0FDA3E0FEA3E0FF90029E120AEB
:101753006490029EE0F8A3E0F9A3E0FAA3E0FB9013
:10176300029AE0FCA3E0FDA3E0FEA3E0FF1200A9C0
:101773009002A2120A649002BEE0FCA3E0FDA3E083
:10178300FEA3E0FF9002A2E0F8A3E0F9A3E0FAA32E
:10179300E0FB1200AD9002BE120A649002BEE0FCB0
:1017A300A3E0FDA3E0FEA3E0FF9002AEE0F8A3E018
:1017B300F9A3E0FAA3E0FB12019EC004C005C00632
:1017C300C0079002A2E0FCA3E0FDA3E0FEA3E0FFBC
:1017D3009002AAE0F8A3E0F9A3E0FAA3E0FB120168
:1017E3009ED003D002D001D0001200ADC004C005CA
:1017F300C006C0079002A6E0F8A3E0F9A3E0FAA3AD
:10180300E0FB9002A2E0FCA3E0FDA3E0FEA3E0FF67
:101813001200A99002B2E0F8A3E0F9A3E0FAA3E072
:10182300FB12019ED003D002D001D0001200AD9074
:1018330002B6120A649002A2E0FCA3E0FDA3E0FE5C
:10184300A3E0FFA3120A649002B6E0FCA3E0FDA3A9
:10185300E0FEA3E0FF22900304EBF0A3EAF0A3E988
:10186300F0A3120A64780F7C037D017BFF7A007971
:101873002C7E007F021205C478117C037D017BFF5F
:101883007A00792E7E007F021205C4E490030BF0E8
:10189300A3F090030BE0FEA3E0FFEE3395E0FDFC25
:1018A300900307E0F8A3E0F9A3E0FAA3E0FBD31267
:1018B30008F54059900304E0FBA3E0FAA3E0F99094
:1018C300030BE0FEA3E0FFF5828E83120625FD9055
:1018D300030DE4F0A3EDF08F828E83A3120625FFA0
:1018E30090030BE0FCA3E0FDF5828C83EF1206640A
:1018F30090030DA3E08D828C83A312066490030CE6
:10190300E02402F090030BE03400F080857B017A41
:1019130003790F900317E4F0A37402F0E4FF12209D
:1019230041900304E0FBA3E0FAA3E0F9A3A3A3E03F
:10193300FFA3E0900317CFF0A3EFF0E4FF122041E1
:101943007B017A037911900317E4F0A37402F0E4A6
:10195300FF02204190031AECF0A3EDF0900319EF7E
:10196300F0D374409F7480F8985063A3E0FCA3E025
:10197300FDE41203D37B007A40791C78461202A758
:10198300C004C005C006C00790FEF2E0FCA3E0FD62
:10199300E41203D3D003D002D001D00012019E126F
:1019A300040C90031CEEF0A3EFF090031CE0FCA3E7
:1019B300E0FD900319E0C4540F24FCFFE434FFFE60
:1019C300EF25E0FFEE33FEEF24F5FFEE80599003A1
:1019D3001AE0FCA3E0FDE41203D37B007A40791CF8
:1019E30078461202A7C004C005C006C00790FED205
:1019F300E0FCA3E0FDE41203D3D003D002D001D076
:101A03000012019E12040C90031CEEF0A3EFF09061
:101A1300031CE0FCA3E0FD900319E0C4540F75F030
:101A230002A424D5FFE5F034FE8F82F583ECF0A306
:101A3300EDF022C0E0C0F0C083C082C0D075D000FA
:101A4300C000C001C002C003C004C005C006C00777
:101A530053EFFDE4FF30B509121F06900349EE80F2
:101A63000C121F06C3E49FFFE49E900349F0A3EF0B
:101A7300F0E4FF121EBD900349E0FCA3E0FDEC126D
:101A830003D390031D120A647F007E007D5C7C43B8
:101A930012173A900345120A64900345E0FCA3E051
:101AA300FDA3E0FEA3E0FF12040CAD07AC067F34F8
:101AB300121957D007D006D005D004D003D002D0D6
:101AC30001D000D0D0D082D083D0F0D0E032120049
:101AD30026121D767D147C007F03121B6390030581
:101AE300120A70000032C8E4900309F0A3F07F34B7
:101AF300121134D2ECE4FF121F909003517403F0DF
:101B0300A374E8F0900308120A7040866666900397
:101B13000C120A703F99999A900310120A70471C8D
:101B230040007F007E007DD07C41121C7C12002986
:101B3300900349E0FEA3E0FF7C007D32120686900D
:101B43000353EEF0A3EFF0A3742AF0A374F8F07B31
:101B5300017A0379537F047E007D0012185980D0E7
:101B6300900304EFF07E037FE81206987C007D0C5F
:101B7300120686AB07AA06E4F9F8900357E0FCA324
:101B8300E0FDA3E0FEA3E0FF12083FC3E49FFFE4F0
:101B93009EFE900304E0F9FD7C00700A8F8AEEF547
:101BA3008CD28CD2A922ED64014C700A8F8BEEF596
:101BB3008DD28ED2AB22E9FD7C006402700C8FD7EC
:101BC300EEF5D6438E1043AF0422ED64034C700C44
:101BD3008FD5EEF5D443D10843AF2022E9640470D6
:101BE3000B8FD3EEF5D243D18043AF4022787FE40D
:101BF300F6D8FD758107021C37021AD1E493A3F8C6
:101C0300E493A34003F68001F208DFF48029E49310
:101C1300A3F85407240CC8C333C4540F4420C88307
:101C23004004F456800146F6DFE4800B0102040809
:101C3300102040809020CBE47E019360BCA3FF542E
:101C43003F30E509541FFEE493A360010ECF54C057
:101C530025E060A840B8E493A3FAE493A3F8E493DF
:101C6300A3C8C582C8CAC583CAF0A3C8C582C8CAE7
:101C7300C583CADFE9DEE780BE900304120A6490DD
:101C8300029A120A700000000090029E120A70006D
:101C93000000009002A2120A70000000009002A649
:101CA300120A70000000009002BE120A70000000C9
:101CB30000900304E0FCA3E0FDA3E0FEA3E0FF909B
:101CC30002AA120A64900308E0FCA3E0FDA3E0FE6D
:101CD300A3E0FF9002AE120A6490030CE0FCA3E0C1
:101CE300FDA3E0FEA3E0FF9002B2120A649003108A
:101CF300E0FCA3E0FDA3E0FEA3E0FF9002C2020A22
:101D030064E47B107A27F9F8900357E0FCA3E0FD25
:101D1300A3E0FEA3E0FF12083F90035BEEF0A3EF06
:101D2300F07B407A42790F7800900357E0FCA3E000
:101D3300FDA3E0FEA3E0FF12083FEF24FEFFEE3415
:101D4300FF90035DF0A3EFF07F007E1B7DB77C0067
:101D5300900357E0F8A3E0F9A3E0FAA3E0FBD31262
:101D630008F5500E90035EE004F0700690035DE00A
:101D730004F02243FF10120BBF900357120A6412A0
:101D83001D04E4F594F593F592F591F596F595F523
:101D9300B2F5B1F5B4F5B3F5CAF5C9F5CCF5CBF5A4
:101DA300E2F5E1F5DEF58EF598F59AF5ACF584F5F7
:101DB300A2F5BAF5AFF589900307120A700001C2C4
:101DC3000090030B7402F07B01E4FDFF0213D6AF16
:101DD30006E0FBA3E475F001120739A9F0FA120635
:101DE3000CFDEF14601514601D1460252403702D81
:101DF3009001CAE070FA04F08D99229001CBE07053
:101E0300FA04F08D9B229001CCE070FA04F08DADC2
:101E1300229001CDE070FA04F0AF058F8522C0E077
:101E2300C083C082C0D075D000C007E59830E108F8
:101E33005398FD9001CAE4F0E59830E0255398FEED
:101E4300AF99EF647F7016900344E0FF04F0D3EF83
:101E5300941474809480400A75C76080059003448D
:101E6300E4F0D007D0D0D082D083D0E032E4900326
:101E730021F0D2A0C2A1C2A0D2A1D2A0C2A1F0904F
:101E83000321E0C39480748094805027C2A0E4FDB2
:101E93007F0D122010900321E025E02401F582E458
:101EA3003400F583EEF0A3EFF0D2A0900321E00419
:101EB300F080CC9000007401F022EF1460171460DE
:101EC3001E14602714603024047037C28CE4F58C30
:101ED300F58AD28C22C28EE4F58DF58BD28E2253F5
:101EE3008EEFE4F5D6F5D7438E102253D1F7E4F500
:101EF300D4F5D543D1082253D17FE4F5D2F5D343AA
:101F0300D18022EF14601714601E14602514602C16
:101F130024047030AF8CEFFCAF8AEFFD8026AF8DC9
:101F2300EFFCAF8BEFFD801CAFD6EFFCAFD7EFFD1F
:101F33008012AFD4EFFCAFD5EFFD8008AFD2EFFC3A
:101F4300AFD3EFFDAF05AE0422C2D5E830E70FB241
:101F5300D5E4C39BFBE49AFAE499F9E498F8EC30EE
:101F6300E717B2D5121F8212083FE4C39BFBE49A22
:101F7300FAE499F9E498F8800312083F30D50DE4A8
:101F8300C39FFFE49EFEE49DFDE49CFC22EF1460EE
:101F93001814602014602614602C24047030E4F5B7
:101FA3008AF58C438904D28C22E4F58BF58D438921
:101FB30040D28E22E4F5D7F5D6438E1822E4F5D528
:101FC300F5D443D10C22E4F5D3F5D243D1C022C0DA
:101FD300E0C0F0C083C082C0D075D000C000C00193
:101FE300C002C003C004C005C006C00753EFFB1204
:101FF3001E70D007D006D005D004D003D002D00184
:10200300D000D0D0D082D083D0F0D0E032A9055315
:10201300BCF0EF42BC43BC40E5BC30E5FB53BCDF46
:10202300AFBDEFFEADBEEDFFE4F5BDF5BEAD01EF17
:10203300A805088005CEC313CE13D8F9FF22900359
:1020430014EBF0A3EAF0A3E9F0AE0790031774FFD3
:10205300F5F012073945F06008900314121DD28081
:10206300EA22C0E0C083C082E59A30E108539AFDBA
:102073009001CBE4F0E59A30E003539AFED082D08E
:1020830083D0E032C0E0C083C082E5AC30E10853C6
:10209300ACFD9001CCE4F0E5AC30E00353ACFED0F2
:1020A30082D083D0E032C0E0C083C082E58430E1D7
:1020B300085384FD9001CDE4F0E58430E0035384BC
:1020C300FED082D083D0E0324403570000000042A8
:1020D300035B000042035D00004402F200000000C5
:0820E3004402924516000000C2
:00000001FF
